:020000040800F2
:1000000000000820091B00086D160008751600087E
:100010007D160008851600088D16000800000000F7
:10002000000000000000000000000000117B00083C
:100030009516000800000000217D0008897D000859
:10004000591B0008591B0008591B0008591B0008C0
:10005000591B0008591B0008591B0008591B0008B0
:10006000591B0008591B0008591B0008591B0008A0
:10007000591B0008591B0008591B0008591B000890
:10008000591B0008591B0008591B0008591B000880
:10009000591B0008591B0008591B0008591B000870
:1000A000591B0008591B0008591B0008591B000860
:1000B000591B0008591B0008591B0008591B000850
:1000C000591B0008591B0008591B0008591B000840
:1000D000591B0008591B0008591B0008A5160008E9
:1000E000591B0008591B0008591B0008591B000820
:1000F000591B0008B9160008591B0008591B0008B5
:10010000591B0008591B0008591B0008591B0008FF
:10011000591B0008591B0008591B0008591B0008EF
:10012000591B0008591B0008591B0008591B0008DF
:10013000591B0008591B0008591B0008591B0008CF
:10014000591B0008591B0008591B0008591B0008BF
:10015000591B0008591B0008591B0008591B0008AF
:10016000591B0008591B0008591B0008591B00089F
:10017000591B0008591B0008591B0008000000000B
:10018000591B0008591B0008591B0008591B00087F
:10019000591B0008591B0008591B0008591B00086F
:1001A000591B0008591B0008591B0008591B00085F
:1001B000591B0008591B0008591B0008591B00084F
:1001C000591B0008591B000800000000591B0008BB
:1001D000591B0008591B0008591B0008591B00082F
:1001E000591B0008591B0008591B0008591B00081F
:0801F000591B0008591B00080F
:1002000010B5054C237833B9044B13B10448AFF350
:1002100000800123237010BD380200200000000080
:100220006C57010808B5034B1BB103490348AFF3F2
:10023000008008BD000000003C0200206C5701084F
:1002400010F8012B11F8013B012A28BF9A42F7D080
:10025000D01A7047000000000000000000000000FD
:1002600001F0FF01102A2BDB10F0070F08D010F867
:10027000013B013A8B422DD010F0070F42B3F6D16B
:10028000F0B441EA012141EA014122F007047FF084
:1002900000070023F0E80256083C85EA010586EADB
:1002A000010685FA47F5A3FA87F586FA47F6A5FA17
:1002B00087F68EB9EED1F0BC01F0FF0102F0070223
:1002C00032B110F8013B013A83EA010313B1F8D1CE
:1002D0000020704701387047002D06BF35460338AF
:1002E000073815F0010F07D1013015F4807F02BFE8
:1002F000013015F4C03F0130F0BC0138704700BF39
:10030000034613F8012B002AFBD1181A0138704755
:1003100081F0004102E000BF83F0004330B54FEAB6
:1003200041044FEA430594EA050F08BF90EA020F23
:100330001FBF54EA000C55EA020C7FEA645C7FEAB6
:10034000655C00F0E2804FEA5454D4EB5555B8BFD9
:100350006D420CDD2C4480EA020281EA030382EA4A
:10036000000083EA010180EA020281EA0303362DDC
:1003700088BF30BD11F0004F4FEA01314FF4801CAF
:100380004CEA113102D0404261EB410113F0004FC1
:100390004FEA03334CEA133302D0524263EB430378
:1003A00094EA050F00F0A780A4F10104D5F1200E16
:1003B0000DDB02FA0EFC22FA05F2801841F1000171
:1003C00003FA0EF2801843FA05F359410EE0A5F145
:1003D00020050EF1200E012A03FA0EFC28BF4CF076
:1003E000020C43FA05F3C01851EBE37101F000452C
:1003F00007D54FF0000EDCF1000C7EEB00006EEB39
:100400000101B1F5801F1BD3B1F5001F0CD34908C2
:100410005FEA30004FEA3C0C04F101044FEA445219
:1004200012F5800F80F09A80BCF1004F08BF5FEAA0
:10043000500C50F1000041EB045141EA050130BD80
:100440005FEA4C0C404141EB0101013C28BFB1F592
:10045000801FE9D291F0000F04BF01460020B1FADD
:1004600081F308BF2033A3F10B03B3F120020CDAB0
:100470000C3208DD02F1140CC2F10C0201FA0CF08E
:1004800021FA02F10CE002F11402D8BFC2F1200CF3
:1004900001FA02F120FA0CFCDCBF41EA0C019040A9
:1004A000E41AA2BF01EB0451294330BD6FEA0404F2
:1004B0001F3C1CDA0C340EDC04F11404C4F12002DD
:1004C00020FA04F001FA02F340EA030021FA04F3EF
:1004D00045EA030130BDC4F10C04C4F1200220FA46
:1004E00002F001FA04F340EA0300294630BD21FA84
:1004F00004F0294630BD94F0000F83F4801306BF4A
:1005000081F480110134013D4EE77FEA645C18BF3D
:100510007FEA655C29D094EA050F08BF90EA020FD4
:1005200005D054EA000C04BF1946104630BD91EACC
:10053000030F1EBF0021002030BD5FEA545C05D1CF
:100540004000494128BF41F0004130BD14F580040E
:100550003CBF01F5801130BD01F0004545F0FE4182
:1005600041F470014FF0000030BD7FEA645C1ABFB7
:10057000194610467FEA655C1CBF0B46024650EAEE
:10058000013406BF52EA033591EA030F41F400211A
:1005900030BD00BF90F0000F04BF0021704730B5A0
:1005A0004FF4806404F132044FF000054FF0000175
:1005B00050E700BF90F0000F04BF0021704730B536
:1005C0004FF4806404F1320410F0004548BF40420B
:1005D0004FF000013EE700BF42004FEAE2014FEA60
:1005E00031014FEA02701FBF12F07F4393F07F4F3B
:1005F00081F06051704732F07F4208BF704793F03E
:100600007F4F04BF41F40021704730B54FF4607450
:1006100001F0004521F000411CE700BF50EA010253
:1006200008BF704730B54FF000050AE050EA0102FC
:1006300008BF704730B511F0004502D5404261EB6C
:1006400041014FF4806404F132045FEA915C3FF4AD
:10065000D8AE4FF003025FEADC0C18BF03325FEA4A
:10066000DC0C18BF033202EBDC02C2F1200300FAFB
:1006700003FC20FA02F001FA03FE40EA0E0021FA20
:1006800002F11444BDE600BF7BB972B90029BEBFB8
:1006900000204FF0004106E008BF00281CBF6FF0AB
:1006A00000414FF0FF3000F0EDB9ADF1080C6DE9FD
:1006B00004CE002909DB002B1ADB00F085F8DDF8F9
:1006C00004E0DDE9022304B07047404261EB4101E0
:1006D000002B1BDB00F078F8DDF804E0DDE90223F5
:1006E00004B0404261EB4101524263EB4303704767
:1006F000524263EB430300F067F8DDF804E0DDE904
:10070000022304B0404261EB41017047524263EB67
:10071000430300F059F8DDF804E0DDE9022304B0FA
:10072000524263EB4303704753B94AB9002908BFEB
:1007300000281CBF4FF0FF314FF0FF3000F0A2B98E
:10074000ADF1080C6DE904CE00F03EF8DDF804E0F0
:10075000DDE9022304B0704708B502460B4643ECBE
:10076000172BB5EEC07BF1EE10FA03D4BDE80840BC
:1007700000F00AB8B1EE477B51EC170B00F004F81B
:10078000404261EB410108BD9FED0B6B41EC170B43
:100790009FED0B5B27EE066BBCEEC66BB8EE464BCF
:1007A000A4EE457BFCEEC77B16EE101A17EE900AFE
:1007B000704700BFAFF30080000000000000F03D74
:1007C000000000000000F0412DE9F047089D0C46B4
:1007D000002B4ED194468C458646B2FA82F262D9FD
:1007E0004AB1C2F12003914020FA03F30CFA02FC53
:1007F000194300FA02FE4FEA1C471FFA8CF6B1FBC0
:10080000F7F44FEA1E4307FB141143EA014304FBCC
:1008100006F199420AD91CEB030304F1FF3080F082
:100820001281994240F20F81023C6344591A1FFA27
:100830008EF3B1FBF7F007FB101143EA014300FB15
:1008400006F69E420AD91CEB030300F1FF3180F04B
:10085000FC809E4240F2F980634402389B1B40EAD0
:10086000044000211DB1D3400022C5E90032BDE89B
:10087000F0878B4205D90DB1C5E90001002108467A
:10088000F5E7B3FA83F1002946D1A34202D390429F
:10089000C0F0F080861A64EB03030120002DE6D03F
:1008A000C5E90063E3E7002A40F09080A1EB0C0467
:1008B0004FEA1C481FFA8CF70121B4FBF8F64FEA07
:1008C0001E4308FB164443EA044307FB06F0984224
:1008D00008D91CEB030306F1FF3402D2984200F260
:1008E000CD8026461C1A1FFA8EF3B4FBF8F008FBE5
:1008F000104443EA044300FB07F79F4208D91CEB6E
:10090000030300F1FF3402D29F4200F2B080204680
:10091000DB1B40EA0640A5E7C1F120068B4022FA26
:1009200006F71F4320FA06FC04FA01F343EA0C031E
:10093000F44000FA01F8380C4FEA1349B4FBF0FE1A
:100940001FFA87FC00FB1E4449EA04440EFB0CF925
:10095000A14502FA01F20AD93C190EF1FF3A80F0E2
:100960008480A14540F28180AEF1020E3C44A4EBAC
:1009700009041FFA83F9B4FBF0F300FB134449EABE
:10098000044403FB0CFCA44507D93C1903F1FF30D8
:1009900067D2A44565D9023B3C4443EA0E40A0FB24
:1009A0000293A4EB0C049C42CE469C4651D34ED0FD
:1009B00055B1B8EB0E0364EB0C0404FA06F6CB4019
:1009C0001E43CC40C5E90064002150E7C2F120037A
:1009D00020FA03F10CFA02FC24FA03F394400C43CE
:1009E0004FEA1C4800FA02FE1FFA8CF7B3FBF8F03E
:1009F00008FB1031230C43EA014300FB07F1994245
:100A000008D91CEB030300F1FF362CD299422AD9F6
:100A1000023863445B1AA4B2B3FBF8F108FB11334C
:100A200044EA034401FB07F3A34208D91CEB040486
:100A300001F1FF3613D2A34211D902396444E41AFA
:100A400041EA004139E70446F0E6084606E7C845B2
:100A5000AED2B9EB020E63EB070C0138A8E73146C2
:100A6000EDE7034699E73046D4E7D6467FE763448F
:100A700002384DE70646234608460FE7023E634428
:100A800030E700BF704700BF80B58AB000AF786024
:100A90000023FB6105F060FF5D4B1B68002B01D15B
:100AA00000F090F95B4B1A687B681340002B40F014
:100AB00094807B68002B20D008227B6813447B60E5
:100AC0007B6803F00703002B17D07B6823F0070334
:100AD00008337B607B6803F00703002B0DD04FF0D9
:100AE000500372B683F31188BFF36F8FBFF34F8F3C
:100AF00062B67B6100BF00BFFDE77B68002B6CD056
:100B0000454B1B687A689A4267D8444B3B62434B1B
:100B10001B687B6204E07B6A3B627B6A1B687B62CA
:100B20007B6A5B687A689A4203D97B6A1B68002BF0
:100B3000F1D1374B1B687A6A9A424ED03B6A1B68E8
:100B400008221344FB617B6A1A683B6A1A607B6A5D
:100B50005A687B68D21A08235B009A4222D97A6AC3
:100B60007B681344BB61BB6903F00703002B0DD006
:100B70004FF0500372B683F31188BFF36F8FBFF34A
:100B80004F8F62B63B6100BF00BFFDE77B6A5A68CA
:100B90007B68D21ABB695A607B6A7A685A60B86906
:100BA00000F072F91C4B1A687B6A5B68D31A1A4A08
:100BB0001360194B1A681A4B1B689A4203D2164BE2
:100BC0001B68174A13607B6A5A68124B1B681A43EA
:100BD0007B6A5A607B6A00221A6005F0CBFEFB69D3
:100BE00003F00703002B0DD04FF0500372B683F3D0
:100BF0001188BFF36F8FBFF34F8F62B6FB6000BFEA
:100C000000BFFDE7FB6918462837BD4680BD00BF21
:100C10005C3E0020683E0020603E0020543E0020E4
:100C2000643E002080B586B000AF78607B687B6151
:100C30007B68002B4ED008235B427A6913447B61AA
:100C40007B693B613B695A68244B1B681340002B4E
:100C50000DD14FF0500372B683F31188BFF36F8F3D
:100C6000BFF34F8F62B6FB6000BF00BFFDE73B697B
:100C70001B68002B0DD04FF0500372B683F3118820
:100C8000BFF36F8FBFF34F8F62B6BB6000BF00BF73
:100C9000FDE73B695A68114B1B681340002B19D0C4
:100CA0003B691B68002B15D13B695A680B4B1B68CD
:100CB000DB431A403B695A6005F04EFE3B695A68B7
:100CC000074B1B681344064A1360386900F0DCF8D0
:100CD00005F050FE00BF1837BD4680BD683E0020BD
:100CE000603E002080B487B000AF78607B687B6195
:100CF00008235B427A6913447B617B693B613B69F2
:100D00005A68064B1B68DB431340FB60FB681846C0
:100D10001C37BD465DF8047B704700BF683E00206D
:100D200080B584B000AF7860396005F015FE386892
:100D3000FFF7AAFEB860BB68002B17D07B68002BBA
:100D400014D07868FFF7CEFF034608229B1AFB6099
:100D50003A68FB689A4201D23B68FB60FA6879689E
:100D6000B86811F07AFB7868FFF75CFF05F002FEC7
:100D7000BB6818461037BD4680BD80B586B000AF51
:100D80007860396005F0E8FD3B687A6802FB03F3A0
:100D90007B617869FFF778FEF860FB683B6104E0EF
:100DA0003B695A1C3A6100221A707B695A1E7A61AB
:100DB000002BF5D105F0DEFDFB6818461837BD465F
:100DC00080BD000080B485B000AF4FF47053BB60AD
:100DD000274BFB60FB6803F00703002B0CD0FB687C
:100DE0000733FB60FB6823F00703FB60BA68FB680E
:100DF000D31A1F4A1344BB60FB687B601D4A7B68A3
:100E000013601C4B00225A607B68BA681344FB6075
:100E10000822FB689B1AFB60FB6823F00703FB605A
:100E2000FB68154A1360144B1B6800225A60124B72
:100E30001B6800221A607B683B603B68FA68D21A24
:100E40003B685A600C4B1A683B681A603B685B68E9
:100E50000A4A13603B685B68094A1360094B4FF00C
:100E600000421A6000BF1437BD465DF8047B70472E
:100E700054020020543E00205C3E0020643E0020CE
:100E8000603E0020683E002080B485B000AF7860EE
:100E9000284BFB6002E0FB681B68FB60FB681B687B
:100EA0007A689A42F7D8FB68BB60FB685B68BA68EF
:100EB00013447A689A4208D1FB685A687B685B6879
:100EC0001A44FB685A60FB687B607B68BB607B6888
:100ED0005B68BA681A44FB681B689A4218D1FB68C1
:100EE0001A68154B1B689A420DD07B685A68FB68DC
:100EF0001B685B681A447B685A60FB681B681A6849
:100F00007B681A6008E00C4B1A687B681A6003E083
:100F1000FB681A687B681A60FA687B689A4202D09C
:100F2000FB687A681A6000BF1437BD465DF8047B21
:100F3000704700BF543E00205C3E002080B500AFEB
:100F4000044A0021044804F0DFFB0346034A13600F
:100F500000BF80BD20580108610F00086C3E0020D2
:100F6000B0B5A8B002AFF861344B0193344B009395
:100F7000344B354A3549012007F0D2FD07F1800393
:100F8000184607F099FB324BC7F88030314BC7F851
:100F90008430314BC7F88830304BC7F88C3007F1BC
:100FA0008003184607F096FB034683F00103DBB28B
:100FB000002B03D0A1212A4811F0A0F83B46184687
:100FC00007F0A8FB07F12C043D460FCD0FC42B689A
:100FD000236007F12C0307F140000022002107F0F5
:100FE0009FFA07F1400307F124001E4A1E4907F04B
:100FF000E5FA08F0EFF9024607F1240107F17C0059
:101000001A4B07F01BFB0023BB6707F1780107F1C0
:101010007C030022184607F05FFAC7F89400D7F85F
:101020009430002B03D0C421114811F067F8BB6F36
:101030000133BB670A2004F00DFCE6E775170008D2
:1010400015170008F5160008CD16000814760020C4
:1010500061120008A5120008DD12000849130008FB
:1010600094570108BC570108C0570108CC57010824
:10107000E057010880B485B000AF154B1B6B144AD4
:1010800043F080031363124B1B6B03F08003FB6080
:10109000FB680F4B1B6B0E4A43F0020313630C4BB0
:1010A0001B6B03F00203BB60BB68094B1B6B084A58
:1010B00043F001031363064B1B6B03F001037B60DA
:1010C0007B6800BF1437BD465DF8047B704700BFE6
:1010D0000038024080B500AF00F07EF800F03DFD22
:1010E00000F00CF8FFF7C6FF00F076FC04F0A2FA5F
:1010F000FFF724FF04F0D2FA00BFFDE780B594B0FB
:1011000000AF07F11C0334220021184611F0D8F873
:1011100007F1080300221A605A609A60DA601A61C7
:101120002B4B1B6C2A4A43F080531364284B1B6CD7
:1011300003F080537B607B68264B1B68254A43F491
:1011400040431360234B1B6803F440433B603B6800
:101150000223FB610123BB621023FB6202237B633A
:101160000023BB630823FB63D8233B6402237B6417
:101170000223BB640223FB6407F11C03184601F041
:1011800001F90346002B01D000F064F801F0AAF841
:101190000346002B01D000F05DF80F23BB60022353
:1011A000FB6000233B614FF4A0537B614FF48053FD
:1011B000BB6107F108030721184601F091FB0346C4
:1011C000002B01D000F046F800BF5037BD4680BD6F
:1011D000003802400070004080B584B000AF3B464C
:1011E00000221A605A609A60DA6000F0C5FD01239F
:1011F0003B7000237B7000237B601F233B7287239F
:101200007B720023BB720023FB7201233B7301231B
:101210007B730023BB730023FB733B46184600F02F
:10122000E3FD042000F0C0FD00BF1037BD4680BDC7
:1012300080B582B000AF78607B681B68044A934237
:1012400001D100F097FC00BF0837BD4680BD00BF4C
:101250000020004080B400AF72B600BF00BFFDE7C1
:1012600080B582B000AF786039600C4B1B681A46BD
:101270007B6813441A46094B1A60094B1B681A46CF
:101280007B6813441A46064B1A607868FFF7FCFB2C
:10129000034618460837BD4680BD00BFAC6D002030
:1012A000B06D002080B582B000AF786039607B6897
:1012B000002B0CD07868FFF715FD0346064A12682C
:1012C000D31A1A46044B1A607868FFF7ABFC00BFCC
:1012D0000837BD4680BD00BFB06D002080B584B02A
:1012E00000AFF860B9607A60154B1B681A46BB689E
:1012F00013441A46124B1A60124B1B681A46BB68FD
:1013000013441A460F4B1A60FB68002B04D1B868CF
:10131000FFF7BAFB03460EE0F868FFF7E3FC03466D
:10132000084A1268D31A1A46064B1A60B968F86858
:10133000FFF7F6FC034618461037BD4680BD00BFD8
:10134000AC6D0020B06D002080B584B000AFF860B7
:10135000B9607A60FB68BA6802FB03F30C4A126852
:1013600013441A460A4B1A60FB68BA6802FB03F37F
:10137000084A126813441A46064B1A60B968F8689E
:10138000FFF7FBFC034618461037BD4680BD00BF83
:10139000AC6D0020B06D00202DE9B04386B000AFE9
:1013A000C7E902017A6000237B61D7E9020120A32B
:1013B000D3E90023FFF768F902460B467968C1E9D3
:1013C0000023D7E902011AA3D3E90023FFF75CF950
:1013D0007B689A607B689B68002B20DA7B689B683F
:1013E000114A82FB03121217DB17D31A01337B61F8
:1013F0007B68D3E900237969C8170C460546B2EB30
:10140000040863EB05097B68C3E900897B689A6877
:101410007B69064901FB03F31A447B689A6000BFAD
:101420001837BD46BDE8B083A12FB84400CA9A3B27
:1014300000CA9A3B000000002DE9B04F8EB000AF0B
:101440007862396207F128020023136053604FF07D
:1014500000024FF00003C7E90C2307F128031846E8
:1014600005F010FDBB6ADA17BB61FA614FF00002AC
:101470004FF00003B9690B000022C7E90C23FB6A97
:1014800000221C461546D7E90C231119B9606B419F
:10149000FB60D7E90234C7E90C34D7E90C010246F6
:1014A0000B464FF000044FF000055D0145EAD265A0
:1014B000540122462B46B2EB000863EB01094FF0C2
:1014C00000024FF000034FEA492343EAD8534FEAA2
:1014D00048229046994618EB000A49EB010B4FF061
:1014E00000024FF000034FEA8B1343EA9A634FEA7E
:1014F0008A12B2EB0A043C6063EB0B037B60D7E912
:10150000004523461B183B612B4641EB03037B61DF
:101510003A6AD7E90401FFF73FFF0023184638373E
:10152000BD46BDE8B08F000080B582B000AF114B62
:101530001B6C104A43F0805313640E4B1B6C03F07A
:1015400080537B607B680B4B5B6C0A4A43F480439F
:101550005364084B5B6C03F480433B603B680022A0
:101560000F216FF0010000F0DDFB00BF0837BD4622
:1015700080BD00BF0038024080B58EB000AF7860FB
:101580000023FB620023BB62334B1B6C324A43F4E3
:1015900080731364304B1B6C03F48073FB60FB6837
:1015A00007F1100207F114031146184601F07EFB03
:1015B0003B6AFB62FB6A002B03D101F04FFB7863AF
:1015C00004E001F04BFB03465B007B637B6B234A2B
:1015D000A2FB03239B0C013BBB62214B214A1A60F7
:1015E0001F4B40F2E732DA601D4ABB6A53601C4B66
:1015F00000221A611A4B00229A60194B00229A614C
:10160000174801F0ADFF034687F8333097F83330C1
:10161000002B1BD1124802F005F8034687F833303F
:1016200097F83330002B11D12D2000F097FB7B6809
:101630000F2B08D8002279682D2000F073FB0A4A8E
:101640007B68136002E0012387F8333097F833306A
:1016500018463837BD4680BD0038024083DE1B4344
:10166000B46D0020002000400800002080B400AFCE
:1016700000BFFDE780B400AF00BFFDE780B400AF5E
:1016800000BFFDE780B400AF00BFFDE780B400AF4E
:1016900000BFFDE780B400AF00BFBD465DF8047B2E
:1016A0007047000080B500AF024802F043FC00BF65
:1016B00080BD00BF1476002080B500AF024802F064
:1016C00029F800BF80BD00BFB46D002080B584B094
:1016D00000AF78607B68D3F88C32FB60012204494C
:1016E000F86802F0BDFA012318461037BD4680BDE8
:1016F0000076002080B584B000AF78607B68D3F8B6
:101700008C32FB60F86802F0EFFA012318461037BC
:10171000BD4680BD80B586B000AFF860B9607A6024
:101720003B60FB68D3F88C327B617B69DB6F202BDD
:101730001AD17B689BB21A46B968786902F032FA0E
:101740000346FB7402E0012004F084F8FB7C002BCC
:1017500003D17B69DB6F202BF5D1FB7C002B01D102
:101760007B6802E0002300E0002318461837BD46DE
:1017700080BD000080B487B000AFF860B9607A60C7
:101780003B6000237B6111E0114B1A68B9687B69EB
:101790000B4410498A5C1A700D4B1B680133C3F36C
:1017A0000A030B4A13607B6901337B61084B1A689B
:1017B000094B1B689A4203D07A697B689A42E3D34B
:1017C0007B6918461C37BD465DF8047B704700BF37
:1017D00004760020006E00200876002080B582B0DC
:1017E00000AF78600D4B1B68B3F5006F02D10B4B57
:1017F00000221A60094B1B68094A1178094AD15422
:10180000064B1B680133054A1360012204497868BE
:1018100002F026FA00BF0837BD4680BD08760020DA
:1018200000760020006E002080B400AF012318462F
:10183000BD465DF8047B704780B582B000AF78602C
:10184000396010F0D5FD034616221A604FF0FF33C1
:1018500018460837BD4680BD80B582B000AF7860BD
:101860004FF0FF317868FFF7E7FF00BFFDE780B575
:1018700086B000AFF860B9607A6000237B610AE04F
:10188000AFF300800146BB685A1CBA60CAB21A7036
:101890007B6901337B617A697B689A42F0DB7B6804
:1018A00018461837BD4680BD80B586B000AFF860D9
:1018B000B9607A6000237B6109E0BB685A1CBA609A
:1018C0001B781846AFF300807B6901337B617A692E
:1018D0007B689A42F1DB7B6818461837BD4680BDAD
:1018E00080B483B000AF78604FF0FF3318460C37F8
:1018F000BD465DF8047B704780B483B000AF78606C
:1019000039603B684FF400525A60002318460C3788
:10191000BD465DF8047B704780B483B000AF78604B
:10192000012318460C37BD465DF8047B704780B430
:1019300085B000AFF860B9607A60002318461437AC
:10194000BD465DF8047B704780B586B000AF786017
:10195000144A154BD31A7B617B693B61134B1B689F
:10196000002B02D1114B124A1A60104B1A687B6887
:1019700013443A699A4207D210F03AFD03460C220A
:101980001A604FF0FF3309E0084B1B68FB60074B00
:101990001A687B681344054A1360FB6818461837B9
:1019A000BD4680BD00000820000400001076002025
:1019B000800C012080B400AF064BD3F88830054A74
:1019C00043F47003C2F8883000BFBD465DF8047B65
:1019D000704700BF00ED00E080B500AF144B154A22
:1019E0001A60134B4FF4E1325A60114B00229A6097
:1019F0000F4B0022DA600E4B00221A610C4B0C22B6
:101A00005A610B4B00229A61094B0022DA61084BA4
:101A100000221A62064B00225A62054802F074F84E
:101A20000346002B01D0FFF715FC00BF80BD00BFAF
:101A3000147600200048004080B5AEB000AF78605A
:101A400007F1A40300221A605A609A60DA601A61F2
:101A500007F1140390220021184610F031FC7B6836
:101A60001B68264A934244D14FF480737B61002364
:101A70003B6607F11403184601F04AF90346002BB0
:101A800001D0FFF7E7FB1E4B1B6C1D4A43F480237C
:101A900013641B4B1B6C03F480233B613B69184BA5
:101AA0001B6B174A43F002031363154B1B6B03F0C8
:101AB0000203FB60FB684FF44063C7F8A4300223C5
:101AC000C7F8A8300023C7F8AC300323C7F8B030FC
:101AD0000723C7F8B43007F1A4031946094800F0FA
:101AE00055FA00220521272000F01CF9272000F0DC
:101AF00035F900BFB837BD4680BD00BF0048004083
:101B00000038024000040240DFF834D0FFF752FFF3
:101B10000C480D490D4A002302E0D458C450043348
:101B2000C4188C42F9D30A4A0A4C002301E013601E
:101B30000432A242FBD310F061FCFFF7CBFA7047EE
:101B4000000008200000002034020020D4640108B6
:101B500038020020800C0120FEE780B500AF032092
:101B600000F0D5F80F20FFF707FDFFF7DDFC00239D
:101B7000184680BD80B400AF064B1B781A46064B52
:101B80001B681344044A136000BFBD465DF8047B24
:101B9000704700BF0C0000209C76002080B400AF8E
:101BA000034B1B681846BD465DF8047B704700BFB9
:101BB0009C76002080B485B000AF78607B6803F02D
:101BC0000703FB600B4BDB68BB60BA684FF6FF0393
:101BD0001340BB60FB681A02BB681A43064B1343F1
:101BE000BB60044ABB68D36000BF1437BD465DF8D4
:101BF000047B704700ED00E00000FA0580B400AF00
:101C0000044BDB681B0A03F007031846BD465DF86A
:101C1000047B704700ED00E080B483B000AF034662
:101C2000FB7197F90730002B0BDBFB7903F01F02E8
:101C3000074997F907305B09012000FA02F241F8E1
:101C4000232000BF0C37BD465DF8047B704700BF02
:101C500000E100E080B483B000AF03463960FB715F
:101C600097F90730002B0ADB3B68DAB20C4997F989
:101C700007301201D2B20B4483F800230AE03B681C
:101C8000DAB20849FB7903F00F03043B1201D2B228
:101C90000B441A7600BF0C37BD465DF8047B7047D5
:101CA00000E100E000ED00E080B489B000AFF86032
:101CB000B9607A60FB6803F00703FB61FB69C3F15D
:101CC0000703042B28BF0423BB61FB690433062BE5
:101CD00002D9FB69033B00E000237B614FF0FF3238
:101CE000BB6902FA03F3DA43BB681A407B699A4086
:101CF0004FF0FF317B6901FA03F3D9437B680B4056
:101D0000134318462437BD465DF8047B704780B501
:101D100082B000AF78607868FFF74CFF00BF0837EB
:101D2000BD4680BD80B586B000AF0346B9607A601D
:101D3000FB7300237B61FFF761FF78617A68B96804
:101D40007869FFF7B1FF024697F90F301146184640
:101D5000FFF780FF00BF1837BD4680BD80B582B059
:101D600000AF0346FB7197F907301846FFF754FFA1
:101D700000BF0837BD4680BD80B400AFBFF35F8FA2
:101D800000BF074B5B6A064A23F480335362054B5E
:101D900000225A6000BFBD465DF8047B704700BF5B
:101DA00000ED00E090ED00E080B483B000AF78601B
:101DB0000B4A7B6843F0010353600A4B5B6A094A94
:101DC00043F480335362BFF34F8F00BFBFF36F8F75
:101DD00000BF00BF0C37BD465DF8047B704700BFF5
:101DE00090ED00E000ED00E080B483B000AF7860DB
:101DF0007B685A781B4B9A601A4B1B69194A23F06F
:101E000001031361174A7B685B68D3607B681B7BA7
:101E10001A077B68DB7A1B061A437B689B7ADB0414
:101E20001A437B685B7B9B041A437B689B7B5B0448
:101E30001A437B68DB7B1B041A437B685B7A1B02BB
:101E40001A437B681B7A5B0013437A681278114649
:101E5000044A0B43136100BF0C37BD465DF8047B99
:101E6000704700BF90ED00E080B584B000AF7860AF
:101E70007B689B6DFB60FFF791FEB8607B6893F811
:101E80003530DBB2022B08D07B6880225A657B6834
:101E9000002283F83420012352E07B681B681A6813
:101EA0007B681B6822F016021A607B681B685A69FF
:101EB0007B681B6822F080025A617B681B6C002BD8
:101EC00003D17B689B6C002B07D07B681B681A686A
:101ED0007B681B6822F008021A607B681B681A681E
:101EE0007B681B6822F001021A6013E0FFF756FEC0
:101EF0000246BB68D31A052B0CD97B6820225A6591
:101F00007B68032283F835207B68002283F8342025
:101F1000032315E07B681B681B6803F00103002B9B
:101F2000E4D17B68DB6D3F229A40FB689A607B6856
:101F3000012283F835207B68002283F834200023B7
:101F400018461037BD4680BD80B483B000AF7860BE
:101F50007B6893F83530DBB2022B04D07B6880229B
:101F60005A6501230CE07B68052283F835207B68E5
:101F70001B681A687B681B6822F001021A60002344
:101F800018460C37BD465DF8047B704780B489B0B5
:101F900000AF786039600023FB6100237B61002380
:101FA0003B610023BB610023FB6175E10122FB69FA
:101FB00002FA03F37B613B681B687A6913403B615B
:101FC0003A697B699A4240F064813B685B6803F040
:101FD0000303012B05D03B685B6803F00303022B6E
:101FE00030D17B689B68BB61FB695B00032202FA0E
:101FF00003F3DB43BA691340BB613B68DA68FB69F2
:102000005B0002FA03F3BA691343BB617B68BA69E8
:102010009A607B685B68BB610122FB6902FA03F38B
:10202000DB43BA691340BB613B685B681B0903F083
:102030000102FB6902FA03F3BA691343BB617B68CF
:10204000BA695A603B685B6803F00303032B17D03F
:102050007B68DB68BB61FB695B00032202FA03F368
:10206000DB43BA691340BB613B689A68FB695B005C
:1020700002FA03F3BA691343BB617B68BA69DA6099
:102080003B685B6803F00303022B23D1FB69DA088A
:102090007B68083253F82230BB61FB6903F0070309
:1020A0009B000F2202FA03F3DB43BA691340BB61C2
:1020B0003B681A69FB6903F007039B0002FA03F30C
:1020C000BA691343BB61FB69DA087B680832B969F6
:1020D00043F822107B681B68BB61FB695B0003222D
:1020E00002FA03F3DB43BA691340BB613B685B68E8
:1020F00003F00302FB695B0002FA03F3BA691343BE
:10210000BB617B68BA691A603B685B6803F4403363
:10211000002B00F0BE80664B5B6C654A43F4804345
:102120005364634B5B6C03F48043FB60FB68614A60
:10213000FB699B08023352F82330BB61FB6903F053
:1021400003039B000F2202FA03F3DB43BA69134037
:10215000BB617B68584A934237D07B68574A9342A9
:1021600031D07B68564A93422BD07B68554A9342C4
:1021700025D07B68544A93421FD07B68534A9342D0
:1021800019D07B68524A934213D07B68514A9342DC
:102190000DD07B68504A934207D07B684F4A9342E8
:1021A00001D1092312E00A2310E008230EE00723DF
:1021B0000CE006230AE0052308E0042306E00323DD
:1021C00004E0022302E0012300E00023FA6902F0A8
:1021D000030292009340BA691343BB613549FB691E
:1021E0009B080233BA6941F823203D4B9B68BB61D1
:1021F0003B69DB43BA691340BB613B685B6803F42E
:102200008013002B03D0BA693B691343BB61344A86
:10221000BB699360324BDB68BB613B69DB43BA69E6
:102220001340BB613B685B6803F40013002B03D0D1
:10223000BA693B691343BB61294ABB69D360284B28
:102240005B68BB613B69DB43BA691340BB613B68B8
:102250005B6803F40033002B03D0BA693B69134376
:10226000BB611F4ABB6953601D4B1B68BB613B6967
:10227000DB43BA691340BB613B685B6803F480339E
:10228000002B03D0BA693B691343BB61144ABB6995
:102290001360FB690133FB61FB690F2B7FF686AE90
:1022A00000BF00BF2437BD465DF8047B704700BF08
:1022B00000380240003801400000024000040240A3
:1022C00000080240000C02400010024000140240CE
:1022D00000180240001C024000200240002402407E
:1022E000003C014080B582B000AF00237B60234BEF
:1022F0001B6C224A43F080531364204B1B6C03F089
:1023000080533B603B681E4B1B681D4A43F480337F
:102310001360FFF743FC786009E0FFF73FFC0246DB
:102320007B68D31AB3F57A7F01D9032322E0144BDB
:102330005B6803F48033B3F5803FEED1104B1B682C
:102340000F4A43F400331360FFF728FC786009E07C
:10235000FFF724FC02467B68D31AB3F57A7F01D9D4
:10236000032307E0064B5B6803F40033B3F5003F3B
:10237000EED1002318460837BD4680BD0038024024
:102380000070004080B586B000AF78600023FB7518
:102390007B68002B01D101239BE27B681B6803F063
:1023A0000103002B00F08780964B9B6803F00C0321
:1023B000042B0CD0934B9B6803F00C03082B12D119
:1023C000904B5B6803F48003B3F5800F0BD18D4B0A
:1023D0001B6803F40033002B6CD07B685B68002B18
:1023E00068D1012375E27B685B68B3F5803F06D155
:1023F000844B1B68834A43F4803313602EE07B6870
:102400005B68002B0CD17F4B1B687E4A23F4803322
:1024100013607C4B1B687B4A23F4802313601DE010
:102420007B685B68B3F5A02F0CD1764B1B68754AAF
:1024300043F480231360734B1B68724A43F4803368
:1024400013600BE06F4B1B686E4A23F480331360FC
:102450006C4B1B686B4A23F4802313607B685B68BA
:10246000002B13D0FFF79AFB386108E0FFF796FBCB
:1024700002463B69D31A642B01D9032329E2614B3D
:102480001B6803F40033002BF0D014E0FFF786FB49
:10249000386108E0FFF782FB02463B69D31A642BE0
:1024A00001D9032315E2574B1B6803F40033002BBB
:1024B000F0D100E000BF7B681B6803F00203002B33
:1024C00069D0504B9B6803F00C03002B0BD04D4B95
:1024D0009B6803F00C03082B1CD14A4B5B6803F488
:1024E0008003002B16D1474B1B6803F00203002B1F
:1024F00005D07B68DB68012B01D00123E9E1414B6A
:102500001B6823F0F8027B681B69DB003D4913431D
:102510000B6040E07B68DB68002B23D0394B1B68E5
:10252000384A43F001031360FFF738FB386108E0D5
:10253000FFF734FB02463B69D31A022B01D9032370
:10254000C7E1304B1B6803F00203002BF0D02D4B8A
:102550001B6823F0F8027B681B69DB0029491343E1
:102560000B6018E0274B1B68264A23F00103136019
:10257000FFF714FB386108E0FFF710FB02463B69E8
:10258000D31A022B01D90323A3E11E4B1B6803F0CE
:102590000203002BF0D17B681B6803F00803002BBB
:1025A00038D07B685B69002B19D0164B5B6F154ADE
:1025B00043F001035367FFF7F1FA386108E0FFF7D2
:1025C000EDFA02463B69D31A022B01D9032380E1BD
:1025D0000C4B5B6F03F00203002BF0D01AE0094BA9
:1025E0005B6F084A23F001035367FFF7D7FA38619E
:1025F0000AE0FFF7D3FA02463B69D31A022B03D94C
:10260000032366E100380240924B5B6F03F0020344
:10261000002BEED17B681B6803F00403002B00F055
:10262000A4808C4B1B6C03F08053002B0DD1894B85
:102630001B6C884A43F080531364864B1B6C03F079
:102640008053BB60BB680123FB75834B1B6803F49D
:102650008073002B18D1804B1B687F4A43F4807332
:102660001360FFF79BFA386108E0FFF797FA02461C
:102670003B69D31A642B01D903232AE1764B1B68EB
:1026800003F48073002BF0D07B689B68012B06D18C
:10269000704B1B6F6F4A43F0010313672DE07B689B
:1026A0009B68002B0CD16B4B1B6F6A4A23F0010314
:1026B0001367684B1B6F674A23F0040313671CE022
:1026C0007B689B68052B0CD1624B1B6F614A43F002
:1026D000040313675F4B1B6F5E4A43F001031367EC
:1026E0000BE05C4B1B6F5B4A23F001031367594BF4
:1026F0001B6F584A23F0040313677B689B68002B09
:1027000015D0FFF74BFA38610AE0FFF747FA0246A7
:102710003B69D31A41F28832934201D90323D8E0AE
:102720004C4B1B6F03F00203002BEED014E0FFF7BD
:1027300035FA38610AE0FFF731FA02463B69D31AED
:1027400041F28832934201D90323C2E0414B1B6F0F
:1027500003F00203002BEED1FB7D012B05D13D4B95
:102760001B6C3C4A23F0805313647B689B69002BED
:1027700000F0AE80374B9B6803F00C03082B6DD044
:102780007B689B69022B4BD1324B1B68314A23F08B
:1027900080731360FFF702FA386108E0FFF7FEF973
:1027A00002463B69D31A022B01D9032391E0294B3E
:1027B0001B6803F00073002BF0D17B68DA697B683B
:1027C0001B6A1A437B685B6A9B011A437B689B6A9E
:1027D0005B08013B1B041A437B68DB6A1B061A4338
:1027E0007B681B6B1B071B4913434B60194B1B6812
:1027F000184A43F080731360FFF7D0F9386108E09E
:10280000FFF7CCF902463B69D31A022B01D9032307
:102810005FE0104B1B6803F00073002BF0D057E013
:102820000C4B1B680B4A23F080731360FFF7B6F95B
:10283000386108E0FFF7B2F902463B69D31A022B70
:1028400001D9032345E0034B1B6803F00073002B01
:10285000F0D13DE000380240007000401F4B5B6843
:10286000FB607B689B69012B30D0FB6803F480021E
:102870007B68DB699A4229D1FB6803F03F027B68E1
:102880001B6A9A4222D1FA6847F6C07313407A68ED
:10289000526A9201934219D1FB6803F440327B687B
:1028A0009B6A5B08013B1B049A420FD1FB6803F053
:1028B00070627B68DB6A1B069A4207D1FB6803F0F3
:1028C000E0427B681B6B1B079A4201D0012300E0AA
:1028D000002318461837BD4680BD00BF00380240AF
:1028E00080B584B000AF786039600023FB607B68FE
:1028F000002B01D10123D0E06A4B1B6803F00F03CA
:102900003A689A4210D9674B1B6823F00F02654959
:102910003B6813430B60634B1B6803F00F033A687B
:102920009A4201D00123B8E07B681B6803F00203E0
:10293000002B20D07B681B6803F00403002B05D01C
:10294000594B9B68584A43F4E05393607B681B687B
:1029500003F00803002B05D0534B9B68524A43F405
:1029600060439360504B9B6823F0F0027B689B6848
:102970004D4913438B607B681B6803F00103002BF8
:1029800040D07B685B68012B07D1474B1B6803F481
:102990000033002B15D101237FE07B685B68022B9D
:1029A00007D1414B1B6803F00073002B09D10123B1
:1029B00073E03D4B1B6803F00203002B01D10123A0
:1029C0006BE0394B9B6823F003027B685B683649F8
:1029D00013438B60FFF7E2F8F8600AE0FFF7DEF8D8
:1029E0000246FB68D31A41F28832934201D903238D
:1029F00053E02D4B9B6803F00C027B685B689B00E7
:102A00009A42EBD1274B1B6803F00F033A689A42B6
:102A100010D2244B1B6823F00F0222493B6813435A
:102A20000B60204B1B6803F00F033A689A4201D0F9
:102A3000012332E07B681B6803F00403002B08D0FD
:102A4000194B9B6823F4E0527B68DB6816491343FB
:102A50008B607B681B6803F00803002B09D0124BC6
:102A60009B6823F460427B681B69DB000E491343BB
:102A70008B6000F021F802460B4B9B681B0903F0AA
:102A80000F030A49CB5C22FA03F3094A1360094B8E
:102A90001B681846FEF770FD002318461037BD4628
:102AA00080BD00BF003C024000380240445801088D
:102AB00004000020080000202DE9B04F90B000AFC6
:102AC00000237B630023FB6300233B630023BB6382
:102AD000594B9B6803F00C03082B0DD0082B00F218
:102AE000A180002B02D0042B03D09BE0534BBB638F
:102AF0009BE0534BBB6398E04F4B5B6803F03F0395
:102B00007B634D4B5B6803F48003002B28D04A4B5A
:102B10005B689B0900223B627A623B6AC3F3080050
:102B20000021474B03FB01F2002300FB03F3134496
:102B3000434AA0FB0212FA620A46BA62FA6A1344D6
:102B4000FB627B6B0022BB61FA61D7E90623D7E900
:102B50000A01FDF7E9FD02460B461346FB6353E00D
:102B6000354B5B689B0900223B617A613B69C3F38B
:102B7000080A4FF0000B52465B464FF000004FF042
:102B80000001590141EAD261500102460B46B2EB05
:102B90000A0863EB0B094FF000024FF000034FEA05
:102BA000891343EA98634FEA8812B2EB080463EB97
:102BB00009054FF000024FF00003EB0043EA5473A5
:102BC000E20014461D4614EB0A033B6045EB0B0381
:102BD0007B604FF000024FF00003D7E90045294623
:102BE0008B02214643EA915321468A021046194638
:102BF0007B6B0022BB60FA60D7E90223FDF794FDEE
:102C000002460B461346FB630B4B5B681B0C03F041
:102C1000030301335B003B63FA6B3B6BB2FBF3F3E3
:102C2000BB6302E0054BBB6300BFBB6B184640377C
:102C3000BD46BDE8B08F00BF003802400024F4005C
:102C400040787D0180B400AF034B1B681846BD4639
:102C50005DF8047B704700BF0400002080B500AF22
:102C6000FFF7F0FF0246054B9B689B0A03F0070342
:102C70000349CB5C22FA03F3184680BD00380240BA
:102C80005458010880B500AFFFF7DCFF0246054B42
:102C90009B685B0B03F007030349CB5C22FA03F349
:102CA000184680BD003802405458010880B483B0F3
:102CB00000AF786039607B680F221A60124B9B6806
:102CC00003F003027B685A600F4B9B6803F0F0022D
:102CD0007B689A600C4B9B6803F4E0527B68DA6077
:102CE000094B9B68DB0803F4E0527B681A61074BD1
:102CF0001B6803F00F023B681A6000BF0C37BD462B
:102D00005DF8047B704700BF00380240003C024081
:102D100080B588B000AF786000237B6100233B6101
:102D20000023FB600023FB610023BB617B681B6801
:102D300003F00103002B12D0694B9B68684A23F40F
:102D400000039360664B9A687B685B6B644913432E
:102D50008B607B685B6B002B01D10123FB617B687F
:102D60001B6803F40023002B17D05D4BD3F88C3085
:102D700023F440127B68DB6B59491343C1F88C3054
:102D80007B68DB6BB3F5801F01D10123FB617B689E
:102D9000DB6B002B01D10123BB617B681B6803F453
:102DA0008013002B17D04E4BD3F88C3023F4400205
:102DB0007B681B6C4A491343C1F88C307B681B6CE1
:102DC000B3F5800F01D10123FB617B681B6C002BE5
:102DD00001D10123BB617B681B6803F08073002B6A
:102DE00001D00123FB617B681B6803F02003002BEB
:102DF00000F08B803A4B1B6C394A43F080531364CC
:102E0000374B1B6C03F08053BB60BB68354B1B68B2
:102E1000344A43F480731360FEF7C0FE786108E023
:102E2000FEF7BCFE02467B69D31A642B01D903234B
:102E30008FE32C4B1B6803F48073002BF0D0284BDE
:102E40001B6F03F440733B613B69002B35D07B68FB
:102E50001B6B03F440733A699A422ED0204B1B6FD0
:102E600023F440733B611E4B1B6F1D4A43F48033B8
:102E700013671B4B1B6F1A4A23F480331367184ADE
:102E80003B691367164B1B6F03F00103012B14D131
:102E9000FEF784FE78610AE0FEF780FE02467B6959
:102EA000D31A41F28832934201D9032351E30C4BE8
:102EB0001B6F03F00203002BEED07B681B6B03F447
:102EC0004073B3F5407F11D1054B9B6823F4F81292
:102ED0007B68196B044B0B40014913438B600BE07B
:102EE0000038024000700040FFFCFF0FAC4B9B68B5
:102EF000AB4A23F4F8139360A94B1A6F7B681B6BE2
:102F0000C3F30B03A64913430B677B681B6803F0ED
:102F10001003002B10D0A24BD3F88C30A04A23F022
:102F20008073C2F88C309E4BD3F88C207B689B6BEF
:102F30009B491343C1F88C307B681B6803F48043C2
:102F4000002B0AD0964BD3F8903023F440327B68A4
:102F50005B6E93491343C1F890307B681B6803F4A0
:102F60000043002B0AD08E4BD3F8903023F440223C
:102F70007B689B6E8A491343C1F890307B681B685D
:102F800003F48033002B0AD0854BD3F8903023F420
:102F900040127B68DB6E82491343C1F890307B6836
:102FA0001B6803F40033002B0AD07D4BD3F890301C
:102FB00023F440027B681B6F79491343C1F89030BA
:102FC0007B681B6803F04003002B0AD0744BD3F8D6
:102FD000903023F003027B685B6C71491343C1F8A6
:102FE00090307B681B6803F08003002B0AD06C4B89
:102FF000D3F8903023F00C027B689B6C6849134334
:10300000C1F890307B681B6803F48073002B0AD0F2
:10301000634BD3F8903023F030027B68DB6C60495F
:103020001343C1F890307B681B6803F40073002BD6
:103030000AD05B4BD3F8903023F0C0027B681B6D45
:1030400057491343C1F890307B681B6803F48063D1
:10305000002B0AD0524BD3F8903023F440727B6897
:103060005B6D4F491343C1F890307B681B6803F4D4
:103070000063002B0AD04A4BD3F8903023F440620F
:103080007B689B6D46491343C1F890307B681B6891
:1030900003F48053002B0AD0414BD3F8903023F433
:1030A00040527B68DB6D3E491343C1F890307B682A
:1030B0001B6803F40053002B0AD0394BD3F890302F
:1030C00023F440427B681B6E35491343C1F89030AE
:1030D0007B681B6803F48003002B0AD0304BD3F8C5
:1030E000903023F080627B689B6F2D491343C1F8B9
:1030F00090307B681B6803F40013002B11D0284B21
:10310000D3F8903023F000627B68DB6F24491343CF
:10311000C1F890307B68DB6FB3F1006F01D1012300
:10312000BB617B681B6803F00803002B01D00123FF
:10313000BB617B681B6803F48023002B0AD0184B0B
:10314000D3F8903023F040727B685B6F14491343CF
:10315000C1F890307B681B6803F40003002B0BD090
:103160000F4BD3F8903023F080527B68D3F8803037
:103170000B491343C1F890307B681B6803F08063F0
:10318000002B0FD0064BD3F8903023F000527B6811
:10319000D3F8843002491343C1F8903002E000BFF5
:1031A000003802407B681B6803F00063002B0BD0E3
:1031B0008A4BD3F88C3023F000727B68D3F88830C8
:1031C00086491343C1F88C307B681B6803F0805339
:1031D000002B0BD0814BD3F88C3023F080627B68BE
:1031E000D3F88C307D491343C1F88C30FB69012B37
:1031F00006D07B681B6803F00073002B00F0D680BC
:10320000764B1B68754A23F080631360FEF7C6FC9B
:10321000786108E0FEF7C2FC02467B69D31A642B92
:1032200001D9032395E16D4B1B6803F00063002B6C
:10323000F0D17B681B6803F00103002B21D07B6871
:103240005B6B002B1DD1654BD3F884301B0C03F056
:1032500003033B61614BD3F884301B0E03F00F0373
:10326000FB607B685B689A013B691B041A43FB683F
:103270001B061A437B689B681B0758491343C1F818
:1032800084307B681B6803F40023002B04D07B6828
:10329000DB6BB3F5801F0AD07B681B6803F48013D7
:1032A000002B2ED07B681B6CB3F5800F29D14B4BC4
:1032B000D3F884301B0C03F003033B61474BD3F876
:1032C00084301B0F03F00703FB607B685B689A0187
:1032D0003B691B041A437B68DB681B061A43FB68C7
:1032E0001B073E491343C1F884303C4BD3F88C3064
:1032F00023F01F027B685B6A013B38491343C1F826
:103300008C307B681B6803F08073002B1DD0334B1F
:10331000D3F884301B0E03F00F033B612F4BD3F81F
:1033200084301B0F03F00703FB607B685B689A0126
:103330007B681B691B041A433B691B061A43FB6825
:103340001B0726491343C1F884307B681B6803F0D0
:103350000073002B11D07B685B689A017B681B6946
:103360001B041A437B68DB681B061A437B689B6857
:103370001B071A491343C1F88430184B1B68174ABE
:1033800043F080631360FEF709FC786108E0FEF704
:1033900005FC02467B69D31A642B01D90323D8E0CC
:1033A0000E4B1B6803F00063002BF0D0BB69012BB0
:1033B00040F0CE80094B1B68084A23F0805313600D
:1033C000FEF7ECFB78610BE0FEF7E8FB02467B6959
:1033D000D31A642B04D90323BBE000BF003802409A
:1033E0005E4B1B6803F00053B3F1005FECD07B68C9
:1033F0001B6803F40023002B03D07B68DB6B002BDE
:1034000009D07B681B6803F48013002B2ED07B68E7
:103410001B6C002B2AD1514BD3F888301B0C03F0C6
:1034200003033B614D4BD3F888301B0F03F00703B8
:10343000FB607B685B699A013B691B041A437B68EC
:103440009B691B061A43FB681B0744491343C1F8D9
:103450008830424BD3F88C3023F4F8527B689B6A57
:10346000013B1B023D491343C1F88C307B681B684C
:1034700003F40013002B22D07B68DB6FB3F1006FE5
:103480001DD1364BD3F888301B0E03F00F033B6180
:10349000324BD3F888301B0F03F00703FB607B68C7
:1034A0005B699A017B681B6A1B041A433B691B0614
:1034B0001A43FB681B0729491343C1F888307B680E
:1034C0001B6803F00803002B28D0244BD3F8883066
:1034D0001B0E03F00F033B61204BD3F888301B0C0D
:1034E00003F00303FB607B685B699A01FB681B04C4
:1034F0001A433B691B061A437B68DB691B071749A4
:103500001343C1F88830154BD3F88C3023F4403284
:103510007B68DB6A11491343C1F88C300F4B1B6881
:103520000E4A43F080531360FEF738FB786108E0E1
:10353000FEF734FB02467B69D31A642B01D90323BF
:1035400007E0064B1B6803F00053B3F1005FEFD1B7
:10355000002318462037BD4680BD00BF003802401A
:1035600080B582B000AF78607B68002B01D1012369
:1035700049E07B6893F83D30DBB2002B06D17B68D5
:10358000002283F83C20786800F041F87B68022232
:1035900083F83D207B681A687B680433194610461F
:1035A00000F0E8F97B68012283F848207B6801225B
:1035B00083F83E207B68012283F83F207B6801224C
:1035C00083F840207B68012283F841207B68012238
:1035D00083F842207B68012283F843207B68012224
:1035E00083F844207B68012283F845207B68012210
:1035F00083F846207B68012283F847207B680122FC
:1036000083F83D20002318460837BD4680BD80B4AE
:1036100083B000AF786000BF0C37BD465DF8047B17
:103620007047000080B485B000AF78607B6893F885
:103630003D30DBB2012B01D0012354E07B68022234
:1036400083F83D207B681B68DA687B681B6842F062
:103650000102DA607B681B68264A934222D07B68AD
:103660001B68B3F1804F1DD07B681B68224A9342D0
:1036700018D07B681B68214A934213D07B681B6873
:103680001F4A93420ED07B681B681E4A934209D0A2
:103690007B681B681C4A934204D07B681B681B4AEA
:1036A000934215D17B681B689A68194B1340FB60E5
:1036B000FB68062B15D0FB68B3F5803F11D07B6803
:1036C0001B681A687B681B6842F001021A6008E0F8
:1036D0007B681B681A687B681B6842F001021A60ED
:1036E00000E000BF002318461437BD465DF8047B98
:1036F000704700BF00000140000400400008004087
:10370000000C00400004014000400140001800404F
:103710000700010080B584B000AF78607B681B684B
:10372000DB68FB607B681B681B69BB60BB6803F0E0
:103730000203002B20D0FB6803F00203002B1BD0F8
:103740007B681B686FF002021A617B6801221A779E
:103750007B681B689B6903F00303002B03D0786828
:1037600000F0E9F805E0786800F0DBF8786800F030
:10377000ECF87B6800221A77BB6803F00403002B87
:1037800020D0FB6803F00403002B1BD07B681B6870
:103790006FF004021A617B6802221A777B681B684B
:1037A0009B6903F44073002B03D0786800F0C3F8E2
:1037B00005E0786800F0B5F8786800F0C6F87B6836
:1037C00000221A77BB6803F00803002B20D0FB68A7
:1037D00003F00803002B1BD07B681B686FF0080206
:1037E0001A617B6804221A777B681B68DB6903F027
:1037F0000303002B03D0786800F09DF805E078689B
:1038000000F08FF8786800F0A0F87B6800221A7743
:10381000BB6803F01003002B20D0FB6803F01003FB
:10382000002B1BD07B681B686FF010021A617B684D
:1038300008221A777B681B68DB6903F44073002B4E
:1038400003D0786800F077F805E0786800F069F850
:10385000786800F07AF87B6800221A77BB6803F07A
:103860000103002B0CD0FB6803F00103002B07D0F1
:103870007B681B686FF001021A617868FDF7D8FC5D
:10388000BB6803F08003002B04D1BB6803F4005332
:10389000002B0CD0FB6803F08003002B07D07B6863
:1038A0001B686FF402521A61786800F019F9BB685E
:1038B00003F48073002B0CD0FB6803F08003002B13
:1038C00007D07B681B686FF480721A61786800F01B
:1038D00011F9BB6803F04003002B0CD0FB6803F028
:1038E0004003002B07D07B681B686FF040021A6111
:1038F000786800F034F8BB6803F02003002B0CD08C
:10390000FB6803F02003002B07D07B681B686FF077
:1039100020021A61786800F0D9F800BF1037BD4660
:1039200080BD80B483B000AF786000BF0C37BD4667
:103930005DF8047B704780B483B000AF786000BF4F
:103940000C37BD465DF8047B704780B483B000AF90
:10395000786000BF0C37BD465DF8047B704780B4CB
:1039600083B000AF786000BF0C37BD465DF8047BC4
:103970007047000080B485B000AF786039607B6824
:103980001B68FB607B68464A934213D07B68B3F1A7
:10399000804F0FD07B68434A93420BD07B68424AEA
:1039A000934207D07B68414A934203D07B68404AE8
:1039B000934208D1FB6823F07003FB603B685B68AF
:1039C000FA681343FB607B68354A93422BD07B68CF
:1039D000B3F1804F27D07B68324A934223D07B6873
:1039E000314A93421FD07B68304A93421BD07B6898
:1039F0002F4A934217D07B682E4A934213D07B689C
:103A00002D4A93420FD07B682C4A93420BD07B689F
:103A10002B4A934207D07B682A4A934203D07B68A3
:103A2000294A934208D1FB6823F44073FB603B684A
:103A3000DB68FA681343FB60FB6823F080023B6895
:103A40005B691343FB607B68FA681A603B689A689D
:103A50007B68DA623B681A687B689A627B68104A06
:103A6000934203D07B68124A934203D13B681A69A0
:103A70007B681A637B6801225A617B681B6903F0CB
:103A80000103012B05D17B681B6923F001027B68D0
:103A90001A6100BF1437BD465DF8047B704700BF54
:103AA000000001400004004000080040000C0040FD
:103AB0000004014000400140004401400048014032
:103AC00000180040001C00400020004080B483B07B
:103AD00000AF786000BF0C37BD465DF8047B7047CF
:103AE00080B483B000AF786000BF0C37BD465DF88E
:103AF000047B704780B483B000AF786000BF0C37A0
:103B0000BD465DF8047B704780B582B000AF786039
:103B10007B68002B01D1012340E07B68DB6F002B29
:103B200006D17B68002283F878207868FDF784FF4F
:103B30007B682422DA677B681B681A687B681B68CD
:103B400022F001021A607B685B6A002B02D0786861
:103B500000F070FF786800F009FD0346012B01D1E9
:103B600001231BE07B681B685A687B681B6822F492
:103B700090425A607B681B689A687B681B6822F0D9
:103B80002A029A607B681B681A687B681B6842F08F
:103B900001021A60786800F0EFFF03461846083704
:103BA000BD4680BD80B48BB000AFF860B9601346ED
:103BB000FB80FB68DB6F202B47D1BB68002B02D05A
:103BC000FB88002B01D1012340E0FB68BA68DA646E
:103BD000FB68FA88A3F85020FB68FA88A3F8522003
:103BE000FB680022DA66FB680022C3F88420FB68C9
:103BF0002122DA67FB689B68B3F5805F07D1FB6819
:103C00001B69002B03D1FB68134ADA6602E0FB68EC
:103C1000124ADA66FB681B687B617B6953E8003FE8
:103C20003B613B6943F080037B62FB681B681A467B
:103C30007B6A3B62FA61F9693A6A41E80023BB6139
:103C4000BB69002BE6D1002300E0022318462C3785
:103C5000BD465DF8047B7047C35100080D51000854
:103C600080B58AB000AFF860B9601346FB80FB688E
:103C7000D3F88030202B32D1BB68002B02D0FB88D8
:103C8000002B01D101232BE0FB6800221A66FB68A0
:103C90001B685B6803F40003002B18D0FB681B68EB
:103CA0007B617B6953E8003F3B613B6943F0806384
:103CB0007B62FB681B681A467B6A3B62FA61F969A2
:103CC0003A6A41E80023BB61BB69002BE6D1FB885F
:103CD0001A46B968F86801F065F8034600E0022367
:103CE00018462837BD4680BD80B5A2B000AF7860C9
:103CF0000123C7F884307B681B683B663B6E53E842
:103D0000003FFB65FB6D23F4F073C7F880307B68E0
:103D10001B681A46D7F88030FB66BA66B96EFA6E31
:103D200041E800237B667B6E002BE4D17B681B6837
:103D30000833FB64FB6C53E8003FBB64BB6C23F0AF
:103D40000103FB677B681B680833FA6FBA657B6504
:103D5000796DBA6D41E800233B653B6D002BE5D1E1
:103D60007B681B6E012B18D17B681B68BB63BB6B28
:103D700053E8003F7B637B6B23F01003BB677B68DA
:103D80001B681A46BB6F7B643A64396C7A6C41E8F5
:103D90000023FB63FB6B002BE6D17B681B6F002BC2
:103DA0000FD07B681B689B6803F08003802B04D1D5
:103DB0007B681B6F5D4A1A6503E07B681B6F0022FE
:103DC0001A657B685B6F002B0FD07B681B689B6854
:103DD00003F04003402B04D17B685B6F544A1A65A3
:103DE00003E07B685B6F00221A657B681B689B6839
:103DF00003F08003802B2DD17B681B6808337B6226
:103E00007B6A53E8003F3B623B6A23F080037B6799
:103E10007B681B6808337A6F3A63FB62F96A3A6B16
:103E200041E80023BB62BB6A002BE5D17B681B6FB6
:103E3000002B0FD07B681B6F1846FEF785F80346F2
:103E4000002B04D07B681B6F00221A6502E0002360
:103E5000C7F884307B681B689B6803F04003402BE5
:103E600030D17B681B6808333B613B6953E8003FF6
:103E7000FB60FB6823F040033B677B681B680833EB
:103E80003A6FFA61BB61B969FA6941E800237B6165
:103E90007B69002BE5D17B685B6F002B12D07B68C0
:103EA0005B6F1846FEF750F80346002B07D07B687F
:103EB0005B6F00221A650123C7F8843002E00023FB
:103EC000C7F88430D7F88430012B2AD17B680022D0
:103ED000A3F852207B680022A3F85A207B680022B6
:103EE0009A667B680022DA667B680022C3F8842029
:103EF0007B681B680F221A627B681B689A697B6863
:103F00001B6842F008029A617B682022DA677B68AE
:103F10002022C3F880207B6800221A66786800F0AF
:103F200005FB002318468837BD4680BD2550000894
:103F30009150000880B5BAB000AF78607B681B680C
:103F4000DB69C7F8E4307B681B681B68C7F8E030A2
:103F50007B681B689B68C7F8DC30D7F8E42040F624
:103F60000F031340C7F8D830D7F8D830002B15D13D
:103F7000D7F8E43003F02003002B0FD0D7F8E0305F
:103F800003F02003002B09D07B689B6E002B00F010
:103F9000AC827B689B6E78689847A6E2D7F8D830E9
:103FA000002B00F01781D7F8DC3003F00103002B61
:103FB00006D1D7F8E020854B1340002B00F00A8192
:103FC000D7F8E43003F00103002B11D0D7F8E0302C
:103FD00003F48073002B0BD07B681B6801221A62EC
:103FE0007B68D3F8843043F001027B68C3F88420F7
:103FF000D7F8E43003F00203002B11D0D7F8DC30FF
:1040000003F00103002B0BD07B681B6802221A62AD
:104010007B68D3F8843043F004027B68C3F88420C3
:10402000D7F8E43003F00403002B11D0D7F8DC30CC
:1040300003F00103002B0BD07B681B6804221A627B
:104040007B68D3F8843043F002027B68C3F8842095
:10405000D7F8E43003F00803002B17D0D7F8E0308E
:1040600003F02003002B05D1D7F8DC3003F0010367
:10407000002B0BD07B681B6808221A627B68D3F880
:10408000843043F008027B68C3F88420D7F8E4301A
:1040900003F40063002B12D0D7F8E03003F0806304
:1040A000002B0CD07B681B684FF400621A627B689F
:1040B000D3F8843043F020027B68C3F884207B6807
:1040C000D3F88430002B00F01282D7F8E43003F0EC
:1040D0002003002B0DD0D7F8E03003F02003002B95
:1040E00007D07B689B6E002B03D07B689B6E786843
:1040F00098477B68D3F88430C7F8D4307B681B6856
:104100009B6803F04003402B05D0D7F8D43003F070
:104110002803002B4FD0786800F00AFF7B681B68EB
:104120009B6803F04003402B41D17B681B68083338
:10413000C7F89C30D7F89C3053E8003FC7F8983058
:10414000D7F8983023F04003C7F8D0307B681B685D
:104150000833D7F8D020C7F8A820C7F8A430D7F87C
:10416000A410D7F8A82041E80023C7F8A030D7F85A
:10417000A030002BD9D17B685B6F002B13D07B68FC
:104180005B6F134A1A657B685B6F1846FDF7DCFEB0
:104190000346002B17D07B685B6F1B6D7A68526FEC
:1041A000104698470FE0786800F0B6F90BE07868A1
:1041B00000F0B2F907E0786800F0AEF97B68002201
:1041C000C3F8842093E100BF91E100BF2001000407
:1041D000F94F00087B681B6E012B40F04C81D7F82B
:1041E000E43003F01003002B00F04581D7F8E030F5
:1041F00003F01003002B00F03E817B681B68102247
:104200001A627B681B689B6803F04003402B40F0F8
:10421000B6807B685B6F1B685B68A7F8BE30B7F839
:10422000BE30002B00F065817B68B3F85830B7F8DA
:10423000BE209A4280F05D817B68B7F8BE20A3F86B
:104240005A207B685B6FDB69B3F5807F00F0868066
:104250007B681B68C7F88830D7F8883053E8003F80
:10426000C7F88430D7F8843023F48073C7F8B830A7
:104270007B681B681A46D7F8B830C7F89430C7F87F
:104280009020D7F89010D7F8942041E80023C7F881
:104290008C30D7F88C30002BDAD17B681B68083360
:1042A0007B677B6F53E8003F3B673B6F23F0010365
:1042B000C7F8B4307B681B680833D7F8B420C7F858
:1042C0008020FB67F96FD7F8802041E80023BB67A7
:1042D000BB6F002BE1D17B681B6808333B663B6EEC
:1042E00053E8003FFB65FB6D23F04003C7F8B03097
:1042F0007B681B680833D7F8B020FA66BB66B96ED6
:10430000FA6E41E800237B667B6E002BE3D17B686D
:104310002022C3F880207B6800221A667B681B6815
:10432000FB64FB6C53E8003FBB64BB6C23F01003E1
:10433000C7F8AC307B681B681A46D7F8AC30BB6551
:104340007A65796DBA6D41E800233B653B6D002BC2
:10435000E4D17B685B6F1846FDF786FD7B6802221F
:104360005A667B68B3F858207B68B3F85A309BB222
:10437000D31A9BB21946786800F0E2F8B9E07B687E
:10438000B3F858207B68B3F85A309BB2D31AA7F819
:10439000CE307B68B3F85A309BB2002B00F0AB8074
:1043A000B7F8CE30002B00F0A6807B681B68BB639B
:1043B000BB6B53E8003F7B637B6B23F49073C7F8C0
:1043C000C8307B681B681A46D7F8C8307B643A64EB
:1043D000396C7A6C41E80023FB63FB6B002BE4D162
:1043E0007B681B6808337B627B6A53E8003F3B6253
:1043F0003B6A23F00103C7F8C4307B681B680833AD
:10440000D7F8C4203A63FB62F96A3A6B41E80023AB
:10441000BB62BB6A002BE3D17B682022C3F88020FB
:104420007B6800221A667B6800229A667B681B689C
:104430003B613B6953E8003FFB60FB6823F01003DE
:10444000C7F8C0307B681B681A46D7F8C030FB61DC
:10445000BA61B969FA6941E800237B617B69002B85
:10446000E4D17B6802225A66B7F8CE3019467868E4
:1044700000F066F83FE0D7F8E43003F48013002B37
:104480000ED0D7F8DC3003F48003002B08D07B6813
:104490001B684FF480121A62786800F05DF82DE016
:1044A000D7F8E43003F08003002B0ED0D7F8E030CB
:1044B00003F08003002B08D07B68DB6E002B1CD040
:1044C0007B68DB6E7868984717E0D7F8E43003F034
:1044D0004003002B12D0D7F8E03003F04003002B4C
:1044E0000CD0786800F0CDFE08E000BF06E000BF09
:1044F00004E000BF02E000BF00E000BFE837BD46B7
:1045000080BD00BF80B483B000AF786000BF0C37BF
:10451000BD465DF8047B704780B483B000AF78601F
:1045200000BF0C37BD465DF8047B704780B483B094
:1045300000AF786000BF0C37BD465DF8047B704764
:1045400080B483B000AF78600B467B8000BF0C372F
:10455000BD465DF8047B704780B483B000AF7860DF
:1045600000BF0C37BD465DF8047B704780B588B04E
:1045700000AF78600023BB777B689A687B681B6913
:104580001A437B685B691A437B68DB6913437B6171
:104590007B681B681A68A64B13407A6812687969B1
:1045A0000B4313607B681B685B6823F440517B6896
:1045B000DA687B681B680A435A607B689B697B6189
:1045C0007B681B6A7A6913437B617B681B689B6805
:1045D00023F430617B681B687A690A439A607B68C0
:1045E0001B68944A934220D1934BD3F8903003F048
:1045F0000303032B16D801A252F823F00D4600083E
:1046000019460008134600081F4600080123FB77DF
:1046100050E10223FB774DE10423FB774AE10823B5
:10462000FB7747E11023FB7744E17B681B68834AF3
:10463000934232D1804BD3F8903003F00C030C2B13
:1046400028D801A252F823F07D46000895460008BC
:1046500095460008954600088946000895460008DA
:1046600095460008954600088346000895460008D0
:1046700095460008954600088F4600080023FB7702
:1046800018E10223FB7715E10423FB7712E10823ED
:10469000FB770FE11023FB770CE17B681B68684A0E
:1046A000934220D1644BD3F8903003F03003302B89
:1046B00013D0302B14D8202B09D0202B10D8002B4E
:1046C00002D0102B06D00BE00023FB77F2E0022390
:1046D000FB77EFE00423FB77ECE00823FB77E9E0CE
:1046E0001023FB77E6E07B681B68564A934220D193
:1046F000514BD3F8903003F0C003C02B13D0C02B24
:1047000014D8802B09D0802B10D8002B02D0402B3E
:1047100006D00BE00023FB77CCE00223FB77C9E057
:104720000423FB77C6E00823FB77C3E01023FB7765
:10473000C0E07B681B68444A934225D13E4BD3F8C6
:10474000903003F44073B3F5407F17D0B3F5407F4A
:1047500017D8B3F5007F0BD0B3F5007F11D8002B2D
:1047600003D0B3F5807F06D00BE00023FB77A1E0F8
:104770000223FB779EE00423FB779BE00823FB7773
:1047800098E01023FB7795E07B681B682F4A9342E3
:1047900025D1294BD3F8903003F44063B3F5406F33
:1047A00017D0B3F5406F17D8B3F5006F0BD0B3F542
:1047B000006F11D8002B03D0B3F5806F06D00BE04B
:1047C0000123FB7776E00223FB7773E00423FB777A
:1047D00070E00823FB776DE01023FB776AE07B68CD
:1047E0001B681B4A934238D1134BD3F8903003F423
:1047F0004053B3F5405F17D0B3F5405F2AD8B3F507
:10480000005F0BD0B3F5005F24D8002B03D0B3F5C5
:10481000805F06D01EE00023FB774BE00223FB778E
:1048200048E00423FB7745E00823FB7742E000BF24
:10483000F369FFEF001001400038024000440040DF
:1048400000480040004C004000500040001401406F
:10485000007800401023FB772CE07B681B68724ACD
:10486000934225D1714BD3F8903003F44043B3F514
:10487000404F17D0B3F5404F17D8B3F5004F0BD0CA
:10488000B3F5004F11D8002B03D0B3F5804F06D0FD
:104890000BE00023FB770DE00223FB770AE0042303
:1048A000FB7707E00823FB7704E01023FB7701E0A8
:1048B0001023FB777B68DB69B3F5004F5BD1FB7F8F
:1048C000082B28D801A252F823F000BFF1480008B5
:1048D000F94800080149000817490008074900087D
:1048E0001749000817490008174900080F49000830
:1048F000FEF7B4F9B86113E0FEF7C4F9B8610FE050
:104900004B4BBB610CE0FEF7D7F8B86108E04FF401
:104910000043BB6104E00023BB610123BB7700BF00
:10492000BB69002B74D0BB695A007B685B685B086D
:104930001A447B685B68B2FBF3F33B613B690F2B66
:1049400016D93B69B3F5803F12D23B699BB223F085
:104950000F03FB813B695B089BB203F007039AB22C
:10496000FB891343FB817B681B68FA89DA604FE09F
:104970000123BB774CE0FB7F082B28D801A252F81B
:1049800023F000BFA9490008B1490008B94900084F
:10499000CF490008BF490008CF490008CF490008A7
:1049A000CF490008C7490008FEF758F9B86113E07D
:1049B000FEF768F9B8610FE01D4BBB610CE0FEF734
:1049C0007BF8B86108E04FF40043BB6104E00023CA
:1049D000BB610123BB7700BFBB69002B18D07B688C
:1049E0005B685A08BB691A447B685B68B2FBF3F3E7
:1049F0003B613B690F2B09D93B69B3F5803F05D279
:104A00003B699AB27B681B68DA6001E00123BB77DF
:104A10007B6800229A667B680022DA66BB7F1846B4
:104A20002037BD4680BD00BF007C004000380240FA
:104A30000024F40080B483B000AF78607B685B6AC8
:104A400003F00803002B0AD07B681B685B6823F423
:104A500000417B685A6B7B681B680A435A607B681D
:104A60005B6A03F00103002B0AD07B681B685B685C
:104A700023F400317B689A6A7B681B680A435A609A
:104A80007B685B6A03F00203002B0AD07B681B681B
:104A90005B6823F480317B68DA6A7B681B680A43B1
:104AA0005A607B685B6A03F00403002B0AD07B68C2
:104AB0001B685B6823F480217B681A6B7B681B682A
:104AC0000A435A607B685B6A03F01003002B0AD02C
:104AD0007B681B689B6823F480517B689A6B7B68BA
:104AE0001B680A439A607B685B6A03F02003002B13
:104AF0000AD07B681B689B6823F400517B68DA6BE3
:104B00007B681B680A439A607B685B6A03F040031A
:104B1000002B1AD07B681B685B6823F480117B68CC
:104B20001A6C7B681B680A435A607B681B6CB3F580
:104B3000801F0AD17B681B685B6823F4C0017B6817
:104B40005A6C7B681B680A435A607B685B6A03F097
:104B50008003002B0AD07B681B685B6823F400216C
:104B60007B689A6C7B681B680A435A6000BF0C37ED
:104B7000BD465DF8047B704780B598B002AF7860A1
:104B80007B680022C3F88420FDF708F878657B680D
:104B90001B681B6803F00803082B2ED16FF07E43BF
:104BA00000937B6D00224FF40011786800F08CF8C0
:104BB0000346002B21D07B681B68BB63BB6B53E8AB
:104BC000003F7B637B6B23F080033B657B681B6846
:104BD0001A463B6D7B643A64396C7A6C41E8002379
:104BE000FB63FB6B002BE6D17B682022DA677B68D6
:104BF000002283F87820032362E07B681B681B682F
:104C000003F00403042B49D16FF07E4300937B6DC6
:104C100000224FF48001786800F056F80346002B1C
:104C20003CD07B681B687B627B6A53E8003F3B6239
:104C30003B6A23F49073FB647B681B681A46FB6C29
:104C40003B63FA62F96A3A6B41E80023BB62BB6AD4
:104C5000002BE6D17B681B6808333B613B6953E856
:104C6000003FFB60FB6823F00103BB647B681B68AB
:104C70000833BA6CFA61BB61B969FA6941E800238B
:104C80007B617B69002BE5D17B682022C3F8802003
:104C90007B68002283F87820032311E07B682022C0
:104CA000DA677B682022C3F880207B6800221A66BE
:104CB0007B6800225A667B68002283F878200023F4
:104CC00018465837BD4680BD80B584B000AFF86047
:104CD000B9603B601346FB714FE0BB69B3F1FF3F26
:104CE0004BD0FCF75BFF02463B68D31ABA699A4285
:104CF00002D3BB69002B01D103234EE0FB681B6884
:104D00001B6803F00403002B37D0BB68802B34D022
:104D1000BB68402B31D0FB681B68DB6903F00803DC
:104D2000082B10D1FB681B6808221A62F86800F093
:104D3000FFF8FB680822C3F88420FB68002283F890
:104D40007820012329E0FB681B68DB6903F400631A
:104D5000B3F5006F11D1FB681B684FF400621A6253
:104D6000F86800F0E5F8FB682022C3F88420FB68AF
:104D7000002283F8782003230FE0FB681B68DA69C0
:104D8000BB681340BA689A420CBF01230023DBB210
:104D90001A46FB799A42A0D0002318461037BD4628
:104DA00080BD000080B497B000AFF860B9601346D2
:104DB000FB80FB68BA685A65FB68FA88A3F858203C
:104DC000FB68FA88A3F85A20FB6800229A66FB6801
:104DD0009B68B3F5805F0ED1FB681B69002B05D182
:104DE000FB6840F2FF12A3F85C202DE0FB68FF2275
:104DF000A3F85C2028E0FB689B68002B0DD1FB68C2
:104E00001B69002B04D1FB68FF22A3F85C201BE088
:104E1000FB687F22A3F85C2016E0FB689B68B3F177
:104E2000805F0DD1FB681B69002B04D1FB687F22DA
:104E3000A3F85C2008E0FB683F22A3F85C2003E0B5
:104E4000FB680022A3F85C20FB680022C3F88420E2
:104E5000FB682222C3F88020FB681B680833FB63D1
:104E6000FB6B53E8003FBB63BB6B43F001037B6507
:104E7000FB681B6808337A6DBA647B64796CBA6C22
:104E800041E800233B643B6C002BE5D1FB689B6849
:104E9000B3F5805F07D1FB681B69002B03D1FB686A
:104EA000214A9A6602E0FB68204A9A66FB681B6901
:104EB000002B19D0FB681B68BB62BB6A53E8003F3C
:104EC0007B627B6A43F49073FB64FB681B681A4641
:104ED000FB6C7B633A63396B7A6B41E80023FB62BE
:104EE000FB6A002BE6D118E0FB681B687B617B69DD
:104EF00053E8003F3B613B6943F020033B65FB689F
:104F00001B681A463B6D3B62FA61F9693A6A41E8EF
:104F10000023BB61BB69002BE6D1002318465C3738
:104F2000BD465DF8047B70477F540008D7520008E7
:104F300080B495B000AF78607B681B687B637B6B47
:104F400053E8003F3B633B6B23F49073FB647B6847
:104F50001B681A46FB6C3B64FA63F96B3A6C41E8D8
:104F60000023BB63BB6B002BE6D17B681B68083357
:104F70003B623B6A53E8003FFB61FB6923F001039E
:104F8000BB647B681B680833BA6CFA62BB62B96A9F
:104F9000FA6A41E800237B627B6A002BE5D17B68DB
:104FA0001B6E012B18D17B681B68FB60FB6853E804
:104FB000003FBB60BB6823F010037B647B681B6809
:104FC0001A467B6CBB617A617969BA6941E8002352
:104FD0003B613B69002BE6D17B682022C3F880202F
:104FE0007B6800221A667B6800229A6600BF5437ED
:104FF000BD465DF8047B704780B584B000AF786033
:105000007B689B6BFB60FB680022A3F85A20FB685F
:105010000022A3F85220F868FFF77EFA00BF10378D
:10502000BD4680BD80B584B000AF78607B689B6B67
:10503000FB60FB681B6F00221A65FB685B6F002B2F
:1050400004D0FB685B6F1B6D002B1DD1FB68002239
:10505000A3F85220FB680022A3F85A20FB68002224
:10506000C3F88420FB681B680F221A62FB682022A9
:10507000DA67FB682022C3F88020FB6800221A66EA
:10508000F868FFF753FA00E000BF1037BD4680BD57
:1050900080B584B000AF78607B689B6BFB60FB6879
:1050A0005B6F00221A65FB681B6F002B04D0FB6846
:1050B0001B6F1B6D002B25D1FB680022A3F852202B
:1050C000FB680022A3F85A20FB680022C3F8842062
:1050D000FB681B680F221A62FB681B689A69FB68F1
:1050E0001B6842F008029A61FB682022DA67FB68BD
:1050F0002022C3F88020FB6800221A66F868FFF7B8
:1051000015FA00E000BF1037BD4680BD80B48FB0F7
:1051100000AF78607B68DB6F212B4CD17B68B3F8E4
:1051200052309BB2002B32D17B681B683B623B6ADA
:1051300053E8003FFB61FB6923F080037B637B68DE
:105140001B681A467B6BFB62BA62B96AFA6A41E86D
:1051500000237B627B6A002BE6D17B681B68FB60C7
:10516000FB6853E8003FBB60BB6843F040033B6310
:105170007B681B681A463B6BBB617A617969BA69C7
:1051800041E800233B613B69002BE6D113E07B68DB
:10519000DB6C1A787B681B689A627B68DB6C5A1C34
:1051A0007B68DA647B68B3F852309BB2013B9AB2F9
:1051B0007B68A3F8522000BF3C37BD465DF8047BF6
:1051C000704780B491B000AF78607B68DB6F212BB3
:1051D00051D17B68B3F852309BB2002B32D17B683F
:1051E0001B687B627B6A53E8003F3B623B6A23F0AB
:1051F0008003BB637B681B681A46BB6B3B63FA6228
:10520000F96A3A6B41E80023BB62BB6A002BE6D126
:105210007B681B683B613B6953E8003FFB60FB68B0
:1052200043F040037B637B681B681A467B6BFB6122
:10523000BA61B969FA6941E800237B617B69002B97
:10524000E6D118E07B68DB6CFB63FB6B1B881A46BE
:105250007B681B68C2F308029A627B68DB6C9A1C4D
:105260007B68DA647B68B3F852309BB2013B9AB238
:105270007B68A3F8522000BF4437BD465DF8047B2D
:10528000704780B588B000AF78607B681B68FB60B2
:10529000FB6853E8003FBB60BB6823F04003FB6141
:1052A0007B681B681A46FB69BB617A617969BA69D8
:1052B00041E800233B613B69002BE6D17B6820225B
:1052C000DA677B680022DA667868FFF71BF900BFAF
:1052D0002037BD4680BD80B59CB000AF78607B684C
:1052E000B3F85C30A7F86E307B68D3F88030222B9F
:1052F00040F0B9807B681B685B6AA7F86C30B7F830
:105300006C30D9B2B7F86E30DAB27B685B6D0A40A8
:10531000D2B21A707B685B6D5A1C7B685A657B68D9
:10532000B3F85A309BB2013B9AB27B68A3F85A207B
:105330007B68B3F85A309BB2002B40F09C807B68AE
:105340001B68FB64FB6C53E8003FBB64BB6C23F43D
:105350009073BB667B681B681A46BB6EBB657A653B
:10536000796DBA6D41E800233B653B6D002BE6D1BA
:105370007B681B680833BB63BB6B53E8003F7B63F0
:105380007B6B23F001037B667B681B6808337A6EB6
:105390007A643B64396C7A6C41E80023FB63FB6BF5
:1053A000002BE5D17B682022C3F880207B68002297
:1053B0009A667B6800225A667B681B685B6803F408
:1053C0000003002B18D07B681B687B627B6A53E864
:1053D000003F3B623B6A23F080633B667B681B684F
:1053E0001A463B6E3B63FA62F96A3A6B41E8002366
:1053F000BB62BB6A002BE6D17B681B6E012B2ED1F2
:105400007B6800221A667B681B683B613B6953E836
:10541000003FFB60FB6823F01003FB657B681B68A3
:105420001A46FB6DFB61BA61B969FA6941E800236C
:105430007B617B69002BE6D17B681B68DB6903F02D
:105440001003102B03D17B681B6810221A627B6843
:10545000B3F8583019467868FFF772F80BE07868AF
:10546000FCF7BCF907E07B681B689A697B681B68DE
:1054700042F008029A6100BF7037BD4680BD80B51A
:105480009CB000AF78607B68B3F85C30A7F86E30F2
:105490007B68D3F88030222B40F0B9807B681B6892
:1054A0005B6AA7F86C307B685B6DBB66B7F86C20F5
:1054B000B7F86E3013409AB2BB6E1A807B685B6D92
:1054C0009A1C7B685A657B68B3F85A309BB2013BE3
:1054D0009AB27B68A3F85A207B68B3F85A309BB223
:1054E000002B40F09C807B681B68BB64BB6C53E85E
:1054F000003F7B647B6C23F490737B667B681B6846
:105500001A467B6E7B653A65396D7A6D41E80023FA
:10551000FB64FB6C002BE6D17B681B6808337B6364
:105520007B6B53E8003F3B633B6B23F001033B661F
:105530007B681B6808333A6E3A64FB63F96B3A6C1C
:1055400041E80023BB63BB6B002BE5D17B682022C5
:10555000C3F880207B6800229A667B6800225A6626
:105560007B681B685B6803F40003002B18D07B6822
:105570001B683B623B6A53E8003FFB61FB6923F019
:105580008063FB657B681B681A46FB6DFB62BA6231
:10559000B96AFA6A41E800237B627B6A002BE6D194
:1055A0007B681B6E012B2ED17B6800221A667B68FC
:1055B0001B68FB60FB6853E8003FBB60BB6823F0DF
:1055C0001003BB657B681B681A46BB6DBB617A61C3
:1055D0007969BA6941E800233B613B69002BE6D158
:1055E0007B681B68DB6903F01003102B03D17B6819
:1055F0001B6810221A627B68B3F858301946786825
:10560000FEF79EFF0BE07868FCF7E8F807E07B68A0
:105610001B689A697B681B6842F008029A6100BFA8
:105620007037BD4680BD80B400AF00BFBD465DF899
:10563000047B704780B485B000AFEFF30583BB6097
:10564000BB68002B0FD1EFF310837B607B68002BCE
:1056500005D1EFF311833B603B68002B07D00E4B65
:105660001B68022B03D16FF00503FB600CE00A4BB3
:105670001B68002B05D1084B01221A600023FB6038
:1056800002E04FF0FF33FB60FB6818461437BD465D
:105690005DF8047B704700BFA076002080B584B021
:1056A00000AFEFF30583BB60BB68002B0FD1EFF3B6
:1056B00010837B607B68002B05D1EFF311833B6087
:1056C0003B68002B07D00F4B1B68022B03D16FF0F8
:1056D0000503FB6010E00B4B1B68012B09D1FFF7A2
:1056E000A2FF084B02221A6001F0CAF80023FB60F7
:1056F00002E04FF0FF33FB60FB6818461037BD46F1
:1057000080BD00BFA076002080B590B004AFF860E7
:10571000B9607A6000233B61EFF30583FB61FB69AD
:10572000002B40F08F80EFF31083BB61BB69002B2F
:1057300005D1EFF311837B617B69002B03D0444BD0
:105740001B68022B7ED0FB68002B7BD08023BB62C2
:1057500018237B620023FB624FF0FF333B627B68C0
:10576000002B45D07B681B68002B02D07B681B6830
:10577000FB627B689B69002B02D07B689B697B6224
:105780007B6A002B08D07B6A382B05D87B685B6866
:1057900003F00103002B01D0002354E07B685B6918
:1057A000002B03D07B685B699B08BB627B689B68AE
:1057B000002B0ED07B68DB685B2B0AD97B681B69EA
:1057C000002B06D07B685B69002B02D001233B6273
:1057D00010E07B689B68002B0CD17B68DB68002B9A
:1057E00008D17B681B69002B04D100233B6201E0D8
:1057F00000233B623B6A012B10D17B681B697A68EE
:105800009268029201937B6A0093BB68BA6AF96A54
:10581000F86800F04FFE03463B6113E03B6A002B43
:1058200010D1BB6A9AB207F1100301937B6A00930F
:10583000BB68F96AF86800F0A3FE0346012B01D0AB
:1058400000233B613B6918463037BD4680BD00BF31
:10585000A076002080B586B000AF7860EFF30583B6
:105860003B613B69002B0FD1EFF31083FB60FB68BA
:10587000002B05D1EFF31183BB60BB68002B07D071
:105880000A4B1B68022B03D16FF005037B6107E015
:1058900000237B617B68002B02D0786800F0B8FFA2
:1058A0007B6918461837BD4680BD00BFA076002032
:1058B00080B485B000AFF860B9607A60FB68074AD1
:1058C0001A60BB68064A1A607B6880221A6000BFB3
:1058D0001437BD465DF8047B704700BFA4760020F6
:1058E0000077002080B485B000AFF860B9607A60BE
:1058F000FB68074A1A60BB68064A1A607B684FF467
:1059000080721A6000BF1437BD465DF8047B704793
:10591000007900205C79002080B483B000AF78600B
:105920007B6803F108027B685A607B684FF0FF32A6
:105930009A607B6803F108027B68DA607B6803F198
:1059400008027B681A617B6800221A6000BF0C376E
:10595000BD465DF8047B704780B483B000AF7860CB
:105960007B6800221A6100BF0C37BD465DF8047BDE
:10597000704780B485B000AF786039607B685B6841
:10598000FB603B68FA685A60FB689A683B689A60FB
:10599000FB689B683A685A60FB683A689A603B68A3
:1059A0007A681A617B681B685A1C7B681A6000BFA2
:1059B0001437BD465DF8047B704780B485B000AFF6
:1059C000786039603B681B68BB60BB68B3F1FF3F20
:1059D00003D17B681B69FB600CE07B680833FB60CC
:1059E00002E0FB685B68FB60FB685B681B68BA6889
:1059F0009A42F6D2FB685A683B685A603B685B681B
:105A00003A689A603B68FA689A60FB683A685A603C
:105A10003B687A681A617B681B685A1C7B681A604D
:105A200000BF1437BD465DF8047B704780B485B075
:105A300000AF78607B681B69FB607B685B687A6895
:105A400092689A607B689B687A6852685A60FB68C3
:105A50005B687A689A4203D17B689A68FB685A60EF
:105A60007B6800221A61FB681B685A1EFB681A607B
:105A7000FB681B6818461437BD465DF8047B704709
:105A800080B584B000AF786039607B68FB60FB68EC
:105A9000002B0DD14FF0500372B683F31188BFF382
:105AA0006F8FBFF34F8F62B6BB6000BF00BFFDE7D3
:105AB00002F0D4F8FB681A68FB68DB6BF968096CC4
:105AC00001FB03F31A44FB689A60FB6800229A63A7
:105AD000FB681A68FB685A60FB681A68FB68DB6B36
